:1000000000000000010000000200000003000000EA
:1000100004000000050000000600000007000000CA
:1000200008000000090000000A0000000B000000AA
:100030000C0000000D0000000E0000000F0000008A
:10004000100000001100000012000000130000006A
:10005000140000001500000016000000170000004A
:1000600018000000190000001A0000001B0000002A
:100070001C0000001D0000001E0000001F0000000A
:1000800020000000210000002200000023000000EA
:1000900024000000250000002600000027000000CA
:1000A00028000000290000002A0000002B000000AA
:1000B0002C0000002D0000002E0000002F0000008A
:1000C000300000003100000032000000330000006A
:1000D000340000003500000036000000370000004A
:1000E00038000000390000003A0000003B0000002A
:1000F0003C0000003D0000003E0000003F0000000A
:1001000040000000410000004200000043000000E9
:1001100044000000450000004600000047000000C9
:1001200048000000490000004A0000004B000000A9
:100130004C0000004D0000004E0000004F00000089
:100140005000000051000000520000005300000069
:100150005400000055000000560000005700000049
:1001600058000000590000005A0000005B00000029
:100170005C0000005D0000005E0000005F00000009
:1001800060000000610000006200000063000000E9
:1001900064000000650000006600000067000000C9
:1001A00068000000690000006A0000006B000000A9
:1001B0006C0000006D0000006E0000006F00000089
:1001C0007000000071000000720000007300000069
:1001D0007400000075000000760000007700000049
:1001E00078000000790000007A0000007B00000029
:1001F0007C0000007D0000007E0000007F00000009
:1002000080000000810000008200000083000000E8
:1002100084000000850000008600000087000000C8
:1002200088000000890000008A0000008B000000A8
:100230008C0000008D0000008E0000008F00000088
:100240009000000091000000920000009300000068
:100250009400000095000000960000009700000048
:1002600098000000990000009A0000009B00000028
:100270009C0000009D0000009E0000009F00000008
:10028000A0000000A1000000A2000000A3000000E8
:10029000A4000000A5000000A6000000A7000000C8
:1002A000A8000000A9000000AA000000AB000000A8
:1002B000AC000000AD000000AE000000AF00000088
:1002C000B0000000B1000000B2000000B300000068
:1002D000B4000000B5000000B6000000B700000048
:1002E000B8000000B9000000BA000000BB00000028
:1002F000BC000000BD000000BE000000BF00000008
:10030000C0000000C1000000C2000000C3000000E7
:10031000C4000000C5000000C6000000C7000000C7
:10032000C8000000C9000000CA000000CB000000A7
:10033000CC000000CD000000CE000000CF00000087
:10034000D0000000D1000000D2000000D300000067
:10035000D4000000D5000000D6000000D700000047
:10036000D8000000D9000000DA000000DB00000027
:10037000DC000000DD000000DE000000DF00000007
:10038000E0000000E1000000E2000000E3000000E7
:10039000E4000000E5000000E6000000E7000000C7
:1003A000E8000000E9000000EA000000EB000000A7
:1003B000EC000000ED000000EE000000EF00000087
:1003C000F0000000F1000000F2000000F300000067
:1003D000F4000000F5000000F6000000F700000047
:1003E000F8000000F9000000FA000000FB00000027
:1003F000FC000000FD000000FE000000FF00000007
:1004000000010000010100000201000003010000E2
:1004100004010000050100000601000007010000C2
:1004200008010000090100000A0100000B010000A2
:100430000C0100000D0100000E0100000F01000082
:100440001001000011010000120100001301000062
:100450001401000015010000160100001701000042
:1004600018010000190100001A0100001B01000022
:100470001C0100001D0100001E0100001F01000002
:1004800020010000210100002201000023010000E2
:1004900024010000250100002601000027010000C2
:1004A00028010000290100002A0100002B010000A2
:1004B0002C0100002D0100002E0100002F01000082
:1004C0003001000031010000320100003301000062
:1004D0003401000035010000360100003701000042
:1004E00038010000390100003A0100003B01000022
:1004F0003C0100003D0100003E0100003F01000002
:1005000040010000410100004201000043010000E1
:1005100044010000450100004601000047010000C1
:1005200048010000490100004A0100004B010000A1
:100530004C0100004D0100004E0100004F01000081
:100540005001000051010000520100005301000061
:100550005401000055010000560100005701000041
:1005600058010000590100005A0100005B01000021
:100570005C0100005D0100005E0100005F01000001
:1005800060010000610100006201000063010000E1
:1005900064010000650100006601000067010000C1
:1005A00068010000690100006A0100006B010000A1
:1005B0006C0100006D0100006E0100006F01000081
:1005C0007001000071010000720100007301000061
:1005D0007401000075010000760100007701000041
:1005E00078010000790100007A0100007B01000021
:1005F0007C0100007D0100007E0100007F01000001
:1006000080010000810100008201000083010000E0
:1006100084010000850100008601000087010000C0
:1006200088010000890100008A0100008B010000A0
:100630008C0100008D0100008E0100008F01000080
:100640009001000091010000920100009301000060
:100650009401000095010000960100009701000040
:1006600098010000990100009A0100009B01000020
:100670009C0100009D0100009E0100009F01000000
:10068000A0010000A1010000A2010000A3010000E0
:10069000A4010000A5010000A6010000A7010000C0
:1006A000A8010000A9010000AA010000AB010000A0
:1006B000AC010000AD010000AE010000AF01000080
:1006C000B0010000B1010000B2010000B301000060
:1006D000B4010000B5010000B6010000B701000040
:1006E000B8010000B9010000BA010000BB01000020
:1006F000BC010000BD010000BE010000BF01000000
:10070000C0010000C1010000C2010000C3010000DF
:10071000C4010000C5010000C6010000C7010000BF
:10072000C8010000C9010000CA010000CB0100009F
:10073000CC010000CD010000CE010000CF0100007F
:10074000D0010000D1010000D2010000D30100005F
:10075000D4010000D5010000D6010000D70100003F
:10076000D8010000D9010000DA010000DB0100001F
:10077000DC010000DD010000DE010000DF010000FF
:10078000E0010000E1010000E2010000E3010000DF
:10079000E4010000E5010000E6010000E7010000BF
:1007A000E8010000E9010000EA010000EB0100009F
:1007B000EC010000ED010000EE010000EF0100007F
:1007C000F0010000F1010000F2010000F30100005F
:1007D000F4010000F5010000F6010000F70100003F
:1007E000F8010000F9010000FA010000FB0100001F
:1007F000FC010000FD010000FE010000FF010000FF
:1008000000020000010200000202000003020000DA
:1008100004020000050200000602000007020000BA
:1008200008020000090200000A0200000B0200009A
:100830000C0200000D0200000E0200000F0200007A
:10084000100200001102000012020000130200005A
:10085000140200001502000016020000170200003A
:1008600018020000190200001A0200001B0200001A
:100870001C0200001D0200001E0200001F020000FA
:1008800020020000210200002202000023020000DA
:1008900024020000250200002602000027020000BA
:1008A00028020000290200002A0200002B0200009A
:1008B0002C0200002D0200002E0200002F0200007A
:1008C000300200003102000032020000330200005A
:1008D000340200003502000036020000370200003A
:1008E00038020000390200003A0200003B0200001A
:1008F0003C0200003D0200003E0200003F020000FA
:1009000040020000410200004202000043020000D9
:1009100044020000450200004602000047020000B9
:1009200048020000490200004A0200004B02000099
:100930004C0200004D0200004E0200004F02000079
:100940005002000051020000520200005302000059
:100950005402000055020000560200005702000039
:1009600058020000590200005A0200005B02000019
:100970005C0200005D0200005E0200005F020000F9
:1009800060020000610200006202000063020000D9
:1009900064020000650200006602000067020000B9
:1009A00068020000690200006A0200006B02000099
:1009B0006C0200006D0200006E0200006F02000079
:1009C0007002000071020000720200007302000059
:1009D0007402000075020000760200007702000039
:1009E00078020000790200007A0200007B02000019
:1009F0007C0200007D0200007E0200007F020000F9
:100A000080020000810200008202000083020000D8
:100A100084020000850200008602000087020000B8
:100A200088020000890200008A0200008B02000098
:100A30008C0200008D0200008E0200008F02000078
:100A40009002000091020000920200009302000058
:100A50009402000095020000960200009702000038
:100A600098020000990200009A0200009B02000018
:100A70009C0200009D0200009E0200009F020000F8
:100A8000A0020000A1020000A2020000A3020000D8
:100A9000A4020000A5020000A6020000A7020000B8
:100AA000A8020000A9020000AA020000AB02000098
:100AB000AC020000AD020000AE020000AF02000078
:100AC000B0020000B1020000B2020000B302000058
:100AD000B4020000B5020000B6020000B702000038
:100AE000B8020000B9020000BA020000BB02000018
:100AF000BC020000BD020000BE020000BF020000F8
:100B0000C0020000C1020000C2020000C3020000D7
:100B1000C4020000C5020000C6020000C7020000B7
:100B2000C8020000C9020000CA020000CB02000097
:100B3000CC020000CD020000CE020000CF02000077
:100B4000D0020000D1020000D2020000D302000057
:100B5000D4020000D5020000D6020000D702000037
:100B6000D8020000D9020000DA020000DB02000017
:100B7000DC020000DD020000DE020000DF020000F7
:100B8000E0020000E1020000E2020000E3020000D7
:100B9000E4020000E5020000E6020000E7020000B7
:100BA000E8020000E9020000EA020000EB02000097
:100BB000EC020000ED020000EE020000EF02000077
:100BC000F0020000F1020000F2020000F302000057
:100BD000F4020000F5020000F6020000F702000037
:100BE000F8020000F9020000FA020000FB02000017
:100BF000FC020000FD020000FE020000FF020000F7
:100C000000030000010300000203000003030000D2
:100C100004030000050300000603000007030000B2
:100C200008030000090300000A0300000B03000092
:100C30000C0300000D0300000E0300000F03000072
:100C40001003000011030000120300001303000052
:100C50001403000015030000160300001703000032
:100C600018030000190300001A0300001B03000012
:100C70001C0300001D0300001E0300001F030000F2
:100C800020030000210300002203000023030000D2
:100C900024030000250300002603000027030000B2
:100CA00028030000290300002A0300002B03000092
:100CB0002C0300002D0300002E0300002F03000072
:100CC0003003000031030000320300003303000052
:100CD0003403000035030000360300003703000032
:100CE00038030000390300003A0300003B03000012
:100CF0003C0300003D0300003E0300003F030000F2
:100D000040030000410300004203000043030000D1
:100D100044030000450300004603000047030000B1
:100D200048030000490300004A0300004B03000091
:100D30004C0300004D0300004E0300004F03000071
:100D40005003000051030000520300005303000051
:100D50005403000055030000560300005703000031
:100D600058030000590300005A0300005B03000011
:100D70005C0300005D0300005E0300005F030000F1
:100D800060030000610300006203000063030000D1
:100D900064030000650300006603000067030000B1
:100DA00068030000690300006A0300006B03000091
:100DB0006C0300006D0300006E0300006F03000071
:100DC0007003000071030000720300007303000051
:100DD0007403000075030000760300007703000031
:100DE00078030000790300007A0300007B03000011
:100DF0007C0300007D0300007E0300007F030000F1
:100E000080030000810300008203000083030000D0
:100E100084030000850300008603000087030000B0
:100E200088030000890300008A0300008B03000090
:100E30008C0300008D0300008E0300008F03000070
:100E40009003000091030000920300009303000050
:100E50009403000095030000960300009703000030
:100E600098030000990300009A0300009B03000010
:100E70009C0300009D0300009E0300009F030000F0
:100E8000A0030000A1030000A2030000A3030000D0
:100E9000A4030000A5030000A6030000A7030000B0
:100EA000A8030000A9030000AA030000AB03000090
:100EB000AC030000AD030000AE030000AF03000070
:100EC000B0030000B1030000B2030000B303000050
:100ED000B4030000B5030000B6030000B703000030
:100EE000B8030000B9030000BA030000BB03000010
:100EF000BC030000BD030000BE030000BF030000F0
:100F0000C0030000C1030000C2030000C3030000CF
:100F1000C4030000C5030000C6030000C7030000AF
:100F2000C8030000C9030000CA030000CB0300008F
:100F3000CC030000CD030000CE030000CF0300006F
:100F4000D0030000D1030000D2030000D30300004F
:100F5000D4030000D5030000D6030000D70300002F
:100F6000D8030000D9030000DA030000DB0300000F
:100F7000DC030000DD030000DE030000DF030000EF
:100F8000E0030000E1030000E2030000E3030000CF
:100F9000E4030000E5030000E6030000E7030000AF
:100FA000E8030000E9030000EA030000EB0300008F
:100FB000EC030000ED030000EE030000EF0300006F
:100FC000F0030000F1030000F2030000F30300004F
:100FD000F4030000F5030000F6030000F70300002F
:100FE000F8030000F9030000FA030000FB0300000F
:100FF000FC030000FD030000FE030000FF030000EF
